:0300000002089C57
:0C089C00787FE4F6D8FD758107020800A3
:100800007F387E001208A87F0E7E001208A87F01A4
:100810007E001208A87F807E001208A812088C7F34
:100820004D7E001208907F427E0012089012088CC4
:100830007F447E001208907F447E001208901208C8
:100840008C7F447E001208907FC07E001208A87F33
:100850004C7E001208907F417E001208907F427EFD
:060860000012089080AFB9
:0C08A8008F90C2A1C2A0120866C2A2225A
:04088C007F457E0026
:0C0890008F90C2A1D2A0120866C2A22262
:06086600D2A27F0A7E0011
:10086C00E4FDFCC3ED9FEC9E5015E4FBFA0BBB00C2
:0F087C00010AEB64714A70F50DBD00010C80E4B8
:01088B00224A
:00000001FF
